:020000040800F2
:10000000409E00205902000861150008D112000826
:1000100025150008450C0008132F000800000000FB
:10002000000000000000000000000000A101000826
:10003000650F000800000000F50100087D2300089E
:1000400073020008730200087302000873020008BC
:1000500073020008730200087302000873020008AC
:10006000730200087302000873020008730200089C
:10007000730200087302000873020008730200088C
:10008000730200087302000873020008730200087C
:10009000730200087302000873020008730200086C
:1000A000730200087302000873020008730200085C
:1000B0006524000873020008730200087302000838
:1000C000730200087302000873020008730200083C
:1000D00073020008C92A00089D2B0008730200085B
:1000E000F50F00087302000873020008730200088D
:1000F000730200087302000873020008730200080C
:1001000073020008730200087302000873020008FB
:1001100073020008730200087302000873020008EB
:1001200073020008730200087302000873020008DB
:1001300073020008730200087302000873020008CB
:1001400073020008730200087302000873020008BB
:1001500073020008730200087302000873020008AB
:10016000730200087302000873020008730200089B
:10017000730200087302000873020008730200088B
:100180007302000873020008DFF810D000F03AFB99
:100190000048004705400008AFF30080409E002063
:1001A0002A4B19680868B0E8F04F80F30988BFF35C
:1001B0006F8F4FF0000080F311887047000000003F
:1001C00006480068006880F3088862B661B6BFF32D
:1001D0004F8FBFF36F8F00DF00BF00BF08ED00E05F
:1001E000DFF80C00016841F470010160704700BF46
:1001F00088ED00E0EFF30980BFF36F8F134B1A68AF
:100200001EF0100F08BF20ED108A20E9F04F10609B
:1002100008B44FF0BF0080F31188BFF34F8FBFF3D6
:100220006F8F04F08BFB4FF0000080F3118808BC47
:1002300019680868B0E8F04F1EF0100F08BFB0EC66
:10024000108A80F30988BFF36F8F70474C0100203C
:10025000EFF30580704700000648804706480047D6
:10026000FEE7FEE7FEE7FEE7FEE7FEE7FEE7FEE766
:10027000FEE7FEE7B123000889010008D2B201E0E1
:1002800000F8012B491EFBD270470022F6E710B59B
:1002900013460A4604461946FFF7F0FF204610BDF4
:1002A00030B505462A460B4612F8010B13F8014BF0
:1002B00008B1A042F8D01CB1002802D06D1CF1E7B3
:1002C000284630BD421C10F8011B0029FBD1801AC2
:1002D000704730B505460020034600E05B1C9342A2
:1002E00005D2EC5CC85C201A01D1002CF6D130BDDF
:1002F0002DE9FE4F804681EA0300C00F0C460090B6
:1003000021F0004123F00045B8EB0200A94105D2DD
:100310004046214690461C460B46024623F00040CC
:10032000104347D0270DC7F30A00C3F30A510290C8
:10033000401A019040286BDAC3F3130040F4801B8D
:100340000098924620B10023D2EB030A63EB0B0B1B
:1003500001985946C0F14002504600F0A5F9064602
:100360000D4650465946019A00F0ADF910EB0800D1
:100370006141002487EA115284EAE7731A4340D0AE
:10038000009A62B3019A012A4FEA075215DC001B5A
:1003900061EB02014FF0004202EA0752CDE9004250
:1003A000001C41F5801132462B4600F0ADF903B038
:1003B000BDE8F08F40462146F9E7001B61EB0201E2
:1003C000001C41F5801300185B412018A2F50017AE
:1003D00047EB030140EAD570B6196D4111E06D0895
:1003E0004FEA360645EAC0754FEA0752001B61EB3B
:1003F0000201001C41F5801149084FEA3000001944
:10040000514132462B4603B0BDE8F04F00F06DB9C4
:100410000098012240000023D0EB020263EBE0735E
:10042000009821464FEAE074B8EB000061EB04014C
:10043000E9E783F000435BE781F0004158E72DE9ED
:10044000FE4F81EA030404F0004421F000410094CF
:100450004FF0000B23F0004350EA01045ED052EA53
:1004600003045BD0C3F30A54C1F30A552C44A4F22D
:10047000F3340194A0FB0254C1F3130141F4801141
:10048000C3F3130343F4801301FB024400FB034E48
:10049000840A970A44EA815447EA8357A4FB076811
:1004A00002958D0A05FB07854FEA932C04FB0C543B
:1004B0002705029D4FEA065847EA1637B5EB0805AF
:1004C0006EEB070C870E920E47EA811742EA831201
:1004D000A7FB0201B6EB0B0164EB00042B0D43EA12
:1004E0000C335E1844EB1C50DA465146E7FB020120
:1004F000C5F313044FEA0B3343EA14534FEA0432B3
:10050000019C43EA0603A4F10C040294009CCDE98B
:1005100000B400F0F9F803B0BDE8F08F0020014608
:10052000F9E72DE9F04D81EA030404F0004B21F0D6
:10053000004514464FF0000A23F0004150EA05023E
:1005400020D054EA01021DD0C5F30A570246C5F374
:100550001303C1F31300C1F30A5640F4801543F4AA
:100560008013A7EB0608101BD64608F2FD3873EB84
:10057000050002D308F1010801E092185B41B8F1CF
:10058000000F03DA00200146BDE8F08D00204FF493
:100590008011064684460EE0171B73EB050705D352
:1005A000121B63EB050306434CEA010C49084FEAB2
:1005B000300092185B4150EA0107EDD152EA030086
:1005C00012D082EA040083EA0501084305D0101B1B
:1005D000AB4106D20122002306E000224FF0004387
:1005E00002E06FF0010253101AEB06004CEB0851C9
:1005F00010EB0A0041EB0B01BDE8F04D00F075B8BF
:100600000EB540F2334102910021CDE900110A46B6
:100610000B4600F079F803B000BD30B50B4601463B
:1006200000202022012409E021FA02F59D4205D391
:1006300003FA02F5491B04FA02F52844151EA2F13B
:100640000102F1DC30BD2DE9F05F05460020924645
:100650009B4688460646814640241BE02846414684
:100660004746224600F0E0F853465A46C01A9141E8
:1006700010D311461846224600F016F82D1A67EBE3
:1006800001084F4622460120002100F00DF817EB2B
:1006900000094E41201EA4F10104DFDC484631462A
:1006A0002A464346BDE8F09F202A04DB203A00FAA0
:1006B00002F1002070479140C2F1200320FA03F3B9
:1006C000194390407047202A06DBCB17203A41FAA5
:1006D00002F043EAE07306E041FA02F3D040C2F1CF
:1006E0002002914008431946704710B5141E73F15B
:1006F000000408DA401C41F1000192185B411A43E2
:1007000001D120F0010010BD2DE9F04D92469B462D
:1007100011B1B1FA81F202E0B0FA80F220329046D3
:10072000FFF7C2FF04460F4640EA0A0041EA0B0108
:1007300053465A46084313D0114653EA010019D0D4
:10074000C8F14002504600F06FF805460E4650468C
:1007500059464246FFF7A8FF084305D0012004E0B0
:1007600020463946BDE8F08D0020054346EAE07694
:100770002C4337430A986305E40AA0EB08000022E3
:10078000FD0A44EA47540A3002D500200146E9E751
:10079000010510196941DDE9084500196941BDE805
:1007A000F04DA2E7C1F30A52C1F3130140F2FF3347
:1007B00041F480119A4202DA00200146704740F26B
:1007C00033439A42A2F2334202DC524200F02CB888
:1007D000FFF76ABF30B5041E71F1000404DB4FF06F
:1007E0000044404264EB0101141E73F1000405DB78
:1007F0001C464FF00043524263EB0403994208BF8A
:10080000904230BD064C074D06E0E06840F0010321
:1008100094E8070098471034AC42F6D3FFF7B8FCD1
:10082000707F0008907F0008202A04DB203A21FA1C
:1008300002F00021704721FA02F3D040C2F12002F9
:10084000914008431946704770B58C1810F8015B49
:1008500015F0070301D110F8013B2A1106D110F859
:10086000012B03E010F8016B01F8016B5B1EF9D15D
:100870002B0705D40023521E0DD401F8013BFAE7E3
:1008800010F8013BCB1A921C03E013F8015B01F84E
:10089000015B521EF9D5A142D8D3002070BD21B111
:1008A000826842F00102826003E0826822F0010265
:1008B000826070470021084A1168084A1140D0E957
:1008C00000231A4383681A43C3681A431143044A36
:1008D000C2F804137047000004230140E030FCFF1D
:1008E000002001400021016041608160C1607047CB
:1008F00021B1826842F48072826003E0826822F44F
:1009000080728260704721B1826842F40072826016
:1009100003E0826822F400728260704700B59BB0E9
:100920000121084601F0E8FA0121042001F0E4FA6F
:100930000121080201F000FB03208DF8680001206E
:10094000199019A9374800F037FC19A9364800F06A
:1009500033FC0020179015904FF480301690002043
:10096000189015A8FFF7A6FF01208DF84100002080
:1009700013901290119002208DF8500000200F90DB
:1009800001208DF840000FA9284800F055F80623F3
:1009900001220021254800F08BF8062302220A21BB
:1009A000224800F085F801212048FFF778FF012157
:1009B000880501F0A1FA0020009002200490002098
:1009C00003900B9003200C901948029000200D908A
:1009D0004FF400500890C010069080100990134802
:1009E0004C30019000200E904FF4006007900020E2
:1009F00005904FF400300A9069460E4800F052FA14
:100A000001210C4800F042FA01210848FFF77BFF62
:100A100001210648FFF76CFF044800F0A5F81BB061
:100A200000BD00000000024000080240002001401C
:100A30001A0000201064024030B502460020002356
:100A40005068104C20400D790C6844EA052420437E
:100A5000506090680C4C2040D1E903542C438D68C1
:100A60002C434D7944EA450420439060D06A20F439
:100A700070000C7D641EE4B2234340EA0350D06250
:100A800030BD0000FFFEFFFCFDF7FFC01CB50121DB
:100A9000084601F031FA03208DF80400012000908F
:100AA0006946024800F088FB1CBD000000000240BF
:100AB000F0B504460D4600200021092D11DDE06847
:100AC000A5F10A0606EB4607072606FA07F1884352
:100AD000A5F10A0606EB460603FA06F10843E060B4
:100AE0000CE0206905EB4507072606FA07F1884365
:100AF00005EB450603FA06F108432061072A0FDAE1
:100B0000606B561E06EB86071F2606FA07F1884320
:100B1000561E06EB860605FA06F10843606322E0DE
:100B20000D2A0FDA206BD61F06EB86071F2606FA62
:100B300007F18843D61F06EB860605FA06F108433F
:100B4000206310E0E06AA2F10D0606EB86071F267F
:100B500006FA07F18843A2F10D0606EB860605FAB0
:100B600006F10843E062F0BD816841F08041816098
:100B7000704700210160017141718160C1600161B4
:100B8000012101757047000010B58CB004460121A9
:100B9000084601F0B1F903208DF82C0001200A90DD
:100BA0000AA9154800F008FB1448844203D101212A
:100BB000801501F0C1F91248844203D1012140158A
:100BC00001F0BAF90F48844203D10121001501F068
:100BD000B3F906A8FFF786FE06A8FFF76BFE684686
:100BE000FFF7C7FF69462046FFF726FF0121204691
:100BF000FFF755FE0CB010BD000002400020014080
:100C000000210140002201401CB50121022001F019
:100C100073F901208DF8040000208DF806004FF4D0
:100C20008060009001208DF805006946044800F0BE
:100C3000C3FA4FF48061024800F029FB1CBD00009C
:100C40000004024000BFFEE730B90749096821F0FF
:100C5000C001054A116005E00349096841F04001FF
:100C6000014A1160704700000000024010B50020EA
:100C7000FFF7EAFF002408E0012002F031FE601CCB
:100C8000C4B2642C01DD012010BD0C4800680128AD
:100C9000F2D0002408E0012002F022FE601CC4B261
:100CA000582C01DD0120EFE7044800680028F2D04D
:100CB000572002F015FE0020E6E700000C0240423B
:100CC0001CB50121084601F017F901208DF8040038
:100CD00000208DF806000820009001208DF8070004
:100CE00002208DF805006946014800F065FA1CBD38
:100CF0000000024010B500240020FFF7A5FF00BF50
:100D000007E0012002F0ECFD641C642C01DD0020F2
:100D100010BD124800680128F3D007E0012002F05E
:100D2000DFFD641C642C01DD0020F1E70B48006846
:100D30000028F3D0002407E0012002F0D1FD641C5C
:100D4000642C01DD0020E3E7044800680128F3D0AB
:100D5000322C01DB0120DBE70020D9E70C02404206
:100D600010B50120FFF770FF00200649086014202D
:100D700002F0AAFD01200449C1F88C020D2002F006
:100D8000AFFD10BD8C0240420000404270B500240F
:100D9000002505E06006040EFFF7ACFF04436D1C60
:100DA000082DF7DB204670BD30B52DED068B83B0E6
:100DB0000446FFF785FFFFF7D3FF00200190029064
:100DC000FFF754FF20B1012003B0BDEC068B30BD0E
:100DD000002504E0FFF7DAFF01A948556D1C052D39
:100DE000F8DB9DF804009DF8051008449DF80610F6
:100DF00008449DF8071008449DF8081088423FD128
:100E00009DF8040020709DF8050060709DF80600B4
:100E1000A0709DF80700E0709DF80500FFF7F0FB5B
:100E200041EC1A0B9FED170B53EC102BFFF707FB50
:100E300041EC180B9DF80400FFF7E2FB41EC190BA5
:100E400053EC182BFFF754FAC4E902019DF8070090
:100E5000FFF7D6FB41EC1A0B9FED0A0B53EC102B5E
:100E6000FFF7EDFA41EC180B9DF80600FFF7C8FB01
:100E700041EC190B53EC182BFFF73AFAC4E90401C3
:100E80000020A1E77B14AE47E17A843F21B10268DC
:100E900042F00102026003E0026822F001020260F7
:100EA0007047000010B500220268134B1A40CC684E
:100EB0000B6823434C6923438C692343CC69234348
:100EC0000C6A23434C6A23438C6A23434C6B2343B1
:100ED0008C6B23431A430260426922F00702D1E976
:100EE0000B3423431A4342610B6943604B688360B0
:100EF0008B68C36010BD00003F801CF010B52DED65
:100F0000048B11490988642201FB02F0C11700EB30
:100F100011510913C1F164010C4A11800A49488832
:100F2000FFF76EFB9FED0A0B53EC102BFFF787FAD0
:100F30009FED090B53EC102BFFF7F3FA084A03C29D
:100F4000BDEC048B10BD00001A0000202000002022
:100F50006666666666660A40000000000000B040F3
:100F6000280000207047000010B502A001F0D7FF54
:100F700010BD000041542B5253540D0A00000000D4
:100F800010B506A001F0CBFF08A001F0C8FF0FA02C
:100F900001F0C5FF11A001F0C2FF10BD41542B4369
:100FA000574D4F44453D320D0A00000041542B433C
:100FB000575341503D225A4A4A222C223838383859
:100FC00038383838222C352C330D0A0041542B4345
:100FD00049504D55583D310D0A00000041542B43F6
:100FE00049505345525645523D312C313030303006
:100FF0000D0A000010B54FF4005000F00BF84FF44C
:10100000005000F001F810BD014908607047000071
:10101000143C014001460020034A12680A400AB10C
:10102000012000E000207047143C014000212349CA
:101030008279002A3AD00A46126803689A430B461E
:101040001A600A1D126803689A430B1D1A60027920
:1010500011440A6803681A430A60184A0832126881
:1010600003689A43154B08331A601A1D1268036807
:101070009A43124B0C331A604279102A0ED11A1F70
:10108000126803681A430D4B08331A601A1D126860
:1010900003681A43094B0C331A600DE00749427983
:1010A00011440A6803681A430A6005E00279114492
:1010B0000A6803689A430A6070470000003C0140D8
:1010C00000B585B00121042000F016FF00208DF846
:1010D00010004FF40050039001208DF8130003A975
:1010E000144800F069F80121880300F025FF0D2164
:1010F000022001F0ADF84FF40050019001208DF86E
:101100000A0000208DF808000C208DF8090001A8C5
:10111000FFF78CFF28208DF8000001208DF80300D8
:1011200002208DF801008DF80200684600F01AFADE
:1011300005B000BD0008024010B5044601F03CFFB8
:1011400001F07AF8202001F01DF8C4F3074001F007
:1011500019F8C4F3072001F015F8E0B201F012F815
:1011600001F070F801F0EAFE10BD000010B5104863
:10117000007830B1012809D002280CD0032814D1FE
:101180000EE000210B4801F0A3FA0EE023210948EC
:1011900001F09EFA09E04621064801F099FA04E0C0
:1011A0006421044801F094FA00BF00BF10BD0000A4
:1011B0001200002000180040F0B50A46002100236C
:1011C000002400BF3DE0012505FA01F3156805EA9A
:1011D00003049C4234D105684F000326BE40B5434A
:1011E000056015794E00B5400668354305601579F0
:1011F000012D02D01579022D16D185684F000326E6
:10120000BE40B543856055794E00B540866835438C
:101210008560456801268E40B543456045689679EE
:101220008E40B6B235434560C5684F000326BE40C8
:10123000B543C560D5794E00B540C6683543C56035
:10124000491C1029BFD3F0BDF0B5002300244D0781
:10125000ED0E02FA05F3CE1000F1200555F82650E8
:101260004E07F70E0F26BE40B543CF1000F1200603
:1012700046F82750CE1000F1200555F8265045EAD3
:101280000304CE1000F1200545F82640F0BD41834F
:10129000704701837047000010B50246002110E03E
:1012A00010780A4B5B5C98420AD15378074C481C73
:1012B000205C834204D10B4601EBD370401010BD7B
:1012C000891C6529ECD34FF0FF30F8E774670008FC
:1012D00000BFFEE700B5002007490860012007496C
:1012E000C1F8980200F00CF800200349091F0860BB
:1012F00000F006F800BD00009C82404200804042A1
:10130000142000BF011EA0F10100FBD170470000B6
:1013100010B50346002413E0D8090B4908605806AD
:10132000030EFFF7EDFF01200849C1F89802FFF70F
:10133000E7FF00200449091F0860FFF7E1FF641C74
:10134000082CE9DB10BD00009C8240420080404236
:1013500000B50120084908600849C1F89C02FFF760
:10136000CFFF00200449091D0860FFF7C9FF0020D6
:101370000249C1F8980200BD988240420080404274
:1013800000B501200749086000200749C1F89C0208
:10139000FFF7B6FF01200349091D0860FFF7B0FF02
:1013A00000BD000098824042008040421CB50121EF
:1013B000102000F0A1FD0121042000F09DFD00207F
:1013C0008DF8040001208DF80700702000900120A6
:1013D0008DF8050069460548FFF7EEFE4FF4005012
:1013E000009069460248FFF7E7FE1CBD001002406E
:1013F0000008024010B52048006850B11E48001D8A
:10140000006830B11C480830006810B11B48006803
:10141000F0B91B480078D8B90120194908700A2092
:1014200002F052FA1448006808B9012010BD1248B1
:10143000001D006808B90220F8E70F48083000686E
:1014400008B90320F2E70D48006808B90420EDE769
:101450000948006868B10848001D006848B106489E
:101460000830006828B10548006810B10020044920
:1014700008700020DAE700001002424234024142C4
:10148000100000201CB50121102000F035FD0120C6
:101490008DF8040000208DF8060001208DF807006B
:1014A0004FF4A060009001208DF8050069460448C3
:1014B000FFF782FE4FF4A0610148FFF7EAFE1CBD72
:1014C0000010024010B515480078012820D10024F2
:1014D00007E0142003F03CF92146114801F0F6F82A
:1014E000641C642C03DA0D4800780128F1D06424D0
:1014F00007E0142003F02CF92146094801F0E6F832
:10150000641E002C08DD054800780128F1D003E0B6
:101510006421034801F0DAF810BD0000110000203A
:101520000000014000BFFEE71CB50121022000F0D1
:10153000E3FC01208DF804008DF80600C020009027
:1015400000208DF805008DF8070069460348FFF775
:1015500033FEC0210148FFF79CFE1CBD0004024081
:101560007047000070B5002100230F22C4781CB31F
:10157000174C246804F4E064C4F5E064C4F3072164
:10158000C1F10404E3B20A4144789C40E1B284789A
:10159000144021430C07210E0E4C05786155047848
:1015A00004F01F050124AC4005786D11AD0005F174
:1015B000E025C5F8004109E0047804F01F05012486
:1015C000AC40054D0678761145F8264070BD000008
:1015D0000CED00E000E400E080E100E0024901439E
:1015E000024A1160704700000000FA050CED00E0AF
:1015F00000200CE0002106E00022064B03EBC103B3
:101600001A544A1CD1B28029F6DB421CD0B20828F9
:10161000F0DB7047A80100202DE9F04306460F4695
:1016200090460025444643E03A1BD1B27219D0B22D
:10163000012200F045F83A1BD1B2721BD0B2012250
:1016400000F03EF83A19D1B2721BD0B2012200F07C
:1016500037F83A19D1B27219D0B2012200F030F83D
:101660007A19D1B23219D0B2012200F029F87A1BCE
:10167000D1B23219D0B2012200F022F87A1BD1B2D5
:10168000321BD0B2012200F01BF87A19D1B2321B02
:10169000D0B2012200F014F86D1C05FB05F004FB2C
:1016A000040008FB1809B9F1000F01DD641E6D1E6E
:1016B0006000604308FB08F18842B5DABDE8F083BA
:1016C000F0B514460B46CF1701EB5777C7F3C702A7
:1016D000CF1701EB5777FF10A1EBC707FEB201232D
:1016E000B340DDB24CB1134B03EBC0039B5C2B4307
:1016F000104F07EBC007BB541AE00E4B03EBC003BF
:101700009B5CDB430B4F07EBC007BB54094B03EB60
:10171000C0039B5C2B43074F07EBC007BB54054B33
:1017200003EBC0039B5CDB43024F07EBC007BB54DA
:10173000F0BD0000A801002010B50021AE2000F08F
:10174000FAFA0021084600F0F6FA0021102000F015
:10175000F2FA0021402000F0EEFA0021812000F092
:10176000EAFA0021CF2000F0E6FA0021A12000F0E3
:10177000E2FA0021C82000F0DEFA0021A62000F0E5
:10178000DAFA0021A82000F0D6FA00213F2000F06C
:10179000D2FA0021D32000F0CEFA0021084600F052
:1017A000CAFA0021D52000F0C6FA0021802000F0FE
:1017B000C2FA0021D92000F0BEFA0021F12000F089
:1017C000BAFA0021DA2000F0B6FA0021122000F067
:1017D000B2FA0021DB2000F0AEFA0021402000F038
:1017E000AAFA0021202000F0A6FA0021022000F031
:1017F000A2FA00218D2000F09EFA0021142000F0B2
:101800009AFA0021A42000F096FA0021A62000F008
:1018100092FAFFF7EDFE0021AF2000F08CFA10BD28
:1018200010B50246012000E050430B1EA1F1010457
:10183000E1B2F9D110BD000070B500242BE004F135
:10184000B001C8B2002100F076FA0021084600F08D
:1018500072FA0021102000F06EFAFFF779FD78206F
:10186000FFF756FDFFF736FD4020FFF751FDFFF76C
:1018700031FD002509E0094901EBC501085DFFF7CD
:1018800047FDFFF727FD681CC5B2802DF3DBFFF78E
:1018900077FD601CC4B2082CD1DB70BDA80100200C
:1018A000F8B504460126FFF7A3FE002525E0E11761
:1018B00004EB91718910A4EB8101A94200D10026AB
:1018C000042C0BDAF0B200900E4850F825202807BF
:1018D000010E0C231E2000F02DF90CE0082C0ADA72
:1018E000F0B20090084850F825202807010E0C237C
:1018F0001E2000F01FF901266D1C042DD7DBFFF719
:101900009BFFF8BDC8000020D80000202DE9FE4F45
:101910000746884692461C460197CDF80080082C61
:1019200002D14FF006091FE02046E31704EB537382
:10193000DB1021464FEAE47C04EB5C7C4FEAEC0CC4
:10194000A4EBCC0CBCF1000F02D04FF0010C01E075
:101950004FF0000C6344224604EBD27C4FEA6C0C3F
:1019600003FB0CF303F0FF09AAF12000C6B2002527
:101970005EE0082C07D106EB46002F4901EB400042
:1019800010F805B01DE00C2C07D106EB46002B49E2
:1019900001EB800010F805B013E0102C05D12848A9
:1019A00000EB061010F805B00BE0182C07D106EB81
:1019B000C600244901EB800010F805B001E0BDE845
:1019C000FE8F002002901CE00BF0010028B1414680
:1019D00038460C9AFFF774FE09E00C9808B901200C
:1019E00000E00020024641463846FFF769FE4FEA14
:1019F0006B0B08F1010000F0FF080298401CC0B218
:101A0000029002980828DFDB781CC7B2082C0BD0A4
:101A100004EBD4714A100199791A8A4204D1019FCA
:101A200000980830C0B20090DDF80080681CC5B294
:101A30004D459EDB00BFC2E78C4D0008B44F000847
:101A400028540008185A00082DE9FC4F064688461D
:101A500017461C46B346CDF804802046E21704EB37
:101A60005272D2102146E31704EB5373DB10A4EB40
:101A7000C3030BB1012300E000231A44624392B276
:101A8000009200254BE0102C05D1274800EB4710B1
:101A900010F805A011E00C2C05D1244800EB4710EC
:101AA00010F805A009E0082C05D1214800EB4710EB
:101AB00010F805A001E0BDE8FC8F4FF000091CE024
:101AC0000AF0010028B1414630460B9AFFF7F8FDB5
:101AD00009E00B9808B9012000E0002002464146C9
:101AE0003046FFF7EDFD4FEA6A0A08F1010000F009
:101AF000FF0809F1010000F0FF09B9F1080FDFDB71
:101B0000701CC6B2A6EB0B00A04204D15E46019841
:101B10000830C0B20190DDF80480681C85B20098DE
:101B20008542B0DB00BFC6E7D9670008196E000820
:101B3000597400082DE9F84F05460E4614461F4615
:101B4000DDF828A0A846B3464FF0000914E020466F
:101B5000FFF7A2FB8146B9F1000F0CDB09F0FF0291
:101B60003B4659464046CDF800A0FFF76DFF08EB15
:101B7000070000F0FF08641C20780028E7D1BDE8CA
:101B8000F88F2DE9FF4F82B0064691461F46DDE9EA
:101B90000F4A4FF0000B082C01D14FF0020B00252B
:101BA00030E0781B401EC1B20A20FFF739FEB9FBB6
:101BB000F0F00A21B0FBF1F201FB1208B8F1000FBE
:101BC0000ED104EBD4710BEB610101FB0561C8B2CE
:101BD00023463022CDE900A40399FFF797FE0FE0DA
:101BE00004EBD4710BEB610101FB0561C8B208F194
:101BF0003001CAB22346CDE900A40399FFF786FE5F
:101C0000681CC5B2BD42CCDB06B0BDE8F08F2DE943
:101C1000FF4F05460E4617461C46DDF838904FF03C
:101C2000000A0095B3462046E21704EB5272D21028
:101C30002146E31704EB5373DB10A4EBC3030BB192
:101C4000012300E000231A44D4B24FF0000849E019
:101C5000002003903FE00D9810F80A0002900AF16E
:101C600001001FFA80FA0020019021E0802D16DA91
:101C7000402E14DA029800F0010028B14A4631469D
:101C80002846FFF71DFD0AE0B9F1000F01D1012040
:101C900000E00020024631462846FFF711FD029879
:101CA00040100290701CC6B20198401CC0B2019056
:101CB00001980828DADB681CC5B20098281AB842D7
:101CC00004D1009D0BF1080000F0FF0B5E46039865
:101CD000401CC0B203900398B842BCDB08F101007D
:101CE00000F0FF08A045B3DBBDE8FF8F2DE9F84108
:101CF00006460F4614461D46DDF81C8013E0CDF85D
:101D0000008022782B4639463046FFF7FFFD082D2C
:101D100002D1B01DC6B205E0284605EBD07106EB36
:101D20006101CEB2641C2078202802DB20787E2856
:101D3000E5DDBDE8F88170B505460C46FFF708FB08
:101D40007820FFF7E5FAFFF7C5FA1CB14020FFF74E
:101D5000DFFA02E00020FFF7DBFAFFF7BBFA2846C4
:101D6000FFF7D6FAFFF7B6FAFFF70AFB70BD0000DF
:101D700000B58BB00121402000F0CEF801210220F7
:101D800000F0BAF802208DF81400800304900320BC
:101D90008DF8150000208DF816008DF8170004A9A5
:101DA0001748FFF709FA09220F211548FFF74CFAE7
:101DB0000020ADF80C00ADF806006320029042F25E
:101DC000CF00ADF8040001A90E4800F083FC6020AC
:101DD000ADF818000020ADF824000120ADF81A007D
:101DE0000020089006A9074800F01EFC01210548C4
:101DF00000F0A1FB0121034800F0A9FB0BB000BDDE
:101E0000000402400018004000B58BB001202449B6
:101E100008600121084600F08FF80121102000F031
:101E20006BF802208DF814000002049003208DF856
:101E3000150000208DF8160004A91A48FFF7BCF918
:101E4000012209211748FFF7FFF90020ADF80C0027
:101E5000ADF806006320029040F24730ADF8040070
:101E600000208DF80E0001A90F4800F033FC60201F
:101E7000ADF818000020ADF824000120ADF81A00DC
:101E80006420089006A9084800F090FB012106484C
:101E900000F051FB0121044800F059FB0BB000BDDC
:101EA000A402424200100240000001402DE9F0412E
:101EB00004460E46174601F07FF800F0BDF90220F7
:101EC00000F060F9C4F3074000F05CF9C4F30720A8
:101ED00000F058F9E0B200F055F9002503E0705D1C
:101EE00000F050F96D1CBD42F9DB00F0ABF901F0D8
:101EF00025F8BDE8F081000029B1064A12680243C6
:101F0000044B1A6004E0034A12688243014B1A60D2
:101F1000704700003038024029B1064A1268024377
:101F2000044B1A6004E0034A12688243014B1A60B2
:101F3000704700004038024029B1064A1268024347
:101F4000044B1A6004E0034A12688243014B1A6092
:101F50007047000044380240F0B500210022002400
:101F6000022500260223324F3F6807F00C0121B101
:101F7000042905D0082937D105E02E4F076036E047
:101F80002D4F076033E02A4F3F1F3F68C7F380564D
:101F9000274F3F1F3F6807F03F036EB1264FB7FB47
:101FA000F3F7DFF88CC0ACF1040CDCF800C0CCF324
:101FB000881C07FB0CF40CE01E4FB7FBF3F7DFF8AF
:101FC00070C0ACF1040CDCF800C0CCF3881C07FB3B
:101FD0000CF4174F3F1F3F68C7F301477F1C7D007C
:101FE000B4FBF5F7076002E0124F076000BF00BFC7
:101FF0000F4F3F6807F0F0010909104F7A5C07683E
:10200000D74047600A4F3F6807F4E051890A0B4FF9
:102010007A5C4768D7408760054F3F6807F46041A6
:10202000490B064F7A5C4768D740C760F0BD000097
:10203000083802400024F40000127A003A0100201F
:102040002DE9F04106460C46174600F0F5F803204E
:1020500000F098F8C4F3074000F094F8C4F30720A8
:1020600000F090F8E0B200F08DF8002504E0FF20C9
:1020700000F088F870556D1CBD42F8DB00F0E2F806
:10208000BDE8F0810146D1F884008030D1F880307D
:10209000C21AD01702EB5060C011A2EBC010C0B240
:1020A000704710B5044680212046FEF7EEF8002068
:1020B00044F8800F60602072803C10BD0146D1E979
:1020C0002003984201D101207047D1F880000A5CBA
:1020D000D1F88030581CC31700EB5363DB11A0EB21
:1020E000C313C1F880301046EEE700002DE9F0413F
:1020F00007460E4614463846FFF7C4FF804644455F
:1021000005DD08A000F062FF0120BDE8F081002598
:1021100004E03846FFF7D2FF70556D1CA542F8DB8E
:102120000020F2E76572726F723A20726561642076
:102130006D756C74692064617461200D0A00000083
:1021400010B50246D2F88430581CC31700EB536315
:10215000DB11A0EBC313D2F88040A34201D10120D0
:1021600010BDD2F884001154D2F88430581CC31723
:1021700000EB5363DB11A0EBC313C2F884300020E3
:10218000EEE7000010B501460022002019E0802390
:1021900003410B400BB1012300E000230B4C2360F3
:1021A00001230B4CC4F88C32084B843B1B68012B79
:1021B00002D1802303411A430023044C083C2360CE
:1021C000401C0828E3DB104610BD0000948240420A
:1021D000008040421CB501210220FFF78DFE012046
:1021E0008DF8040000208DF806002C2000900220BD
:1021F0008DF8050069460D48FEF7DEFF00208DF8DA
:1022000004001020009001208DF8070002208DF8B6
:10221000050069460548FEF7CFFF01200449086024
:1022200000200449C1F88C021CBD000000040240DB
:102230008882404200804042002001490860704787
:1022400088824042012001490860704788824042EC
:1022500030B500228B071C0F0F2303FA04F20B4B3F
:102260008C1053F824309343084C8D1044F82530DB
:1022700023468C1053F824308C07240F00FA04F402
:102280002343024C8D1044F8253030BD08380140FE
:102290000CB50020019000903448006840F4803074
:1022A0003249086000BF3148006800F400300090F7
:1022B0000198401C0190009818B90198B0F5A04F02
:1022C000F1D12A48006800F4003010B101200090DC
:1022D00001E0002000900098012846D123484030BA
:1022E000006840F080502149403108602048006873
:1022F00040F440401E4908601C48083000681B49F3
:10230000083108600846006840F40040086008464C
:10231000006840F4A05008601648091F0860081FB4
:10232000006840F08070091F086000BF0F48006817
:1023300000F000700028F9D040F205700E490860E6
:102340000A480830006820F0030008490831086096
:102350000846006840F00200086000BF03480830EB
:10236000006800F00C000828F8D10CBD00380240CD
:102370000070004008544007003C024010B500BF08
:10238000BF2080F31188BFF34F8FBFF36F8F00BF63
:1023900002F0BAFB18B14FF080500449086000BF4A
:1023A000002080F3118800BF10BD000004ED00E0A4
:1023B00010B51548006840F47000134908601348D0
:1023C000006840F001001149086000200F49083101
:1023D00008600E4800680E4908400C4908600D4826
:1023E000091D0860081F006820F48020091F08608C
:1023F000002006490C310860FFF74AFF4FF00060EB
:1024000001498039086010BD88ED00E000380240C5
:10241000FFFFF6FE1030002470B5A0B006460D4652
:10242000144680216846FDF730FF23462A4608A15E
:10243000684600F0DBFD684600F071FD214630463D
:1024400000F074FC4FF4FA7000F09EFD20B070BDF7
:1024500041542B43495053454E443D25642C25643B
:102460000D0A000010B50121880700F07FF801284F
:1024700003D10121800700F05BF810BD0EB50121EA
:102480002020FFF749FD0020ADF80800ADF802005C
:102490004FF6FE7001905320ADF8000000208DF83B
:1024A0000A006946034800F015F90121014800F0CF
:1024B00042F80EBD001400401FB501210846FFF789
:1024C0002BFD4FF0804000F06BF80020ADF80C00C1
:1024D000ADF8060042F20F70029042F2CF00ADF864
:1024E000040000208DF80E0001A94FF0804000F09C
:1024F000F1F80121880700F018F801221146900731
:1025000000F045F81C208DF8000001208DF8030034
:1025100002208DF801008DF802006846FFF722F8CE
:102520000121880700F007F81FBDCA4302827047E7
:10253000CA430282704721B1028842F00102028040
:1025400004E002884FF6FE731A400280704731B1F2
:10255000B0F8442042F40042A0F8442005E0B0F86E
:102560004420C2F30E02A0F84420704730B5024662
:10257000002000230024158A05EA0103958905EA55
:10258000010413B10CB1012000E0002030BD1AB1EC
:1025900083890B43838102E083898B438381704766
:1025A00001894FF6F87211400181704770B500241F
:1025B00000220023058C4FF6FE7635400584028C00
:1025C0008388048B4FF68F752C40B51E2C400D88E8
:1025D0002C43751E2A408D892A434D882A43104D6D
:1025E000A84202D00F4DA84213D14FF6F7752A40EA
:1025F000CD892A434FF6FB752A408D882A434FF632
:10260000FF652B404FF6FF552B400D8A2B434D8A1B
:102610002B43838004838D684563028470BD000072
:10262000000001400004014070B500240022002396
:10263000058C4FF6EF7635400584028C8388048B39
:1026400048F6FF752C404FF6FF452C400D884FF69D
:10265000FF7606EA05252C434FF6DF752A408D8963
:1026600006EA05152A434D8806EA05152A43154D45
:10267000A84202D0144DA8421DD14FF67F752A40C2
:10268000CD894FF6FF7606EA05152A434FF6BF754A
:102690002A408D8806EA05152A434FF6FF352B4060
:1026A0004FF2FF752B400D8A06EA85052B434D8AB4
:1026B00006EA85052B43838004838D688563028445
:1026C00070BD0000000001400004014041637047FC
:1026D0008163704700220288184B98420ED0184B35
:1026E00098420BD0B0F1804F08D0164B984205D0DD
:1026F000154B984202D0154B984204D14FF68F7378
:102700001A404B881A43124B984207D0114B9842FB
:1027100004D04FF6FF431A400B891A4302804B68DE
:10272000C3620B880385054B984202D0044B984244
:1027300001D18B7A03860123838270470000014018
:10274000000401400004004000080040000C00406C
:10275000001000400014004002F0D0F976E005209F
:1027600001F0F6FFFEF746FE20B1012803D0022853
:102770006BD145E069E036483649097800EBC10085
:10278000407834490870084600780A280AD132484F
:102790000078401C3049087008460078042801D1B0
:1027A000002008702B4800780B280AD12B480078AD
:1027B000401C2A49087008460078052801D10020ED
:1027C0000870244800780C280AD125480078401C5D
:1027D0002349087008460078042801D100200870B9
:1027E0001C4800780D280AD11E480078401C1D495D
:1027F000087008460078042801D10020087024E001
:10280000144800780A2802D101201749087011489D
:1028100000780B2802D10120144908700D48007877
:102820000C2802D10120124908700A4800780D28AE
:1028300002D101200F49087005480649097800EBCC
:10284000C10080780349087000BF00BF87E700001F
:10285000400000203C000020E80000201001002083
:102860002501002038010020E9000020110100208E
:10287000240100203901002002F040F90DE0074852
:102880000749097800EBC10040680649086008461E
:10289000006880470A2001F05BFFF0E7400000205D
:1028A0003C000020380000201CB5044601F000FF69
:1028B0000020042103468022CDE9001014A118480D
:1028C00002F0ECF80020032103468022CDE900103D
:1028D00014A1194802F0E2F80020052103468022E5
:1028E000CDE9001015A1194802F0D8F80020032105
:1028F00003464FF40072CDE9001015A1184802F00C
:10290000CDF81848006801F077FF01F0E3FE1CBD28
:102910004F4C4544CFD4CABEC8CECEF10000000013
:1029200079280008B4ABB8D0C6F7CAFDBEDDBBF14C
:10293000C8A1C8CECEF1000069290008B0B4BCFC23
:10294000C9A8C3E8C8CECEF100000000592700088E
:1029500057494649CDA8D0C5C8CECEF100000000E9
:10296000A12900080000002008B5FDF7D7FF02F0FC
:10297000C5F8009010E0C821684601F003FF01F09F
:1029800097FE0648FEF710FA01F0A4FEFEF79AFD46
:10299000FEF7ECFBFEF7B2FAEDE700002806002098
:1029A000A6B002F0ABF825906BE04FF4167125A8A5
:1029B00001F0E8FE334890F8880001281ED1314824
:1029C000FFF760FB0446224669462E48FFF78EFB60
:1029D0002DA16846FDF764FC18B101202D4908605F
:1029E00007E02DA16846FDF75BFC10B100202949E6
:1029F00008600020234981F8880000BF55208DF829
:102A0000840028480068C0B28DF885002648007808
:102A10008DF886002548D0F8A002C0B28DF8870056
:102A2000234800788DF888001A4808300068C0B242
:102A30008DF889001F4800788DF88A001D4880783D
:102A40008DF88B001C4800788DF88C001B480078AE
:102A50008DF88D001A4800788DF88E00194800789E
:102A60008DF88F00FF208DF890000D208DF89100DB
:102A70000A208DF892000F22002121A8FFF7CCFC3C
:102A800000BF92E7400600204C4544315F6F7065FF
:102A90006E000000A00242424C4544315F636C6FFF
:102AA00073650000A88240421200002000004242EC
:102AB0001100002028060020200000200400002033
:102AC000050000200600002010B540F225510948FD
:102AD00000F05DF901280CD1064800F011FAC4B2EB
:102AE0002146054800F011FA40F22551014800F056
:102AF00033F910BD001001400044004000B587B01C
:102B000001210846FFF7F8F902208DF818004FF46C
:102B1000C060059005A91F48FEF74EFB012110205B
:102B2000FFF70AFA072209211A48FEF78DFB072250
:102B30000A211848FEF788FB4FF4E130019000208D
:102B4000ADF810000C20ADF80E000020ADF80C0020
:102B5000ADF80A00ADF8080001A90F4800F066F9C9
:102B600001210D4800F007F9012240F225510A48E1
:102B700000F037F925208DF8000001208DF80300C2
:102B800002208DF801008DF802006846FEF7EAFC8D
:102B900007B000BD000002400010014010B5A2B017
:102BA00040F225512B4800F0F2F801284FD12A4875
:102BB00000782A490870274800F0A2F926490870D1
:102BC00008460178264800F0A0F9234801782548F6
:102BD000FFF7B6FA204801782348FFF7B1FA1F48FB
:102BE00000782A2807D11C4800782A2803D1012020
:102BF0001D4981F88800194800780D2822D116480F
:102C000000780A281ED11748FFF73CFA04462246EE
:102C100001A91448FFF76AFA072214A101A8FDF7D9
:102C200058FB20B902200F4981F8880009E00222F0
:102C300010A101A8FDF74DFB18B90120094981F841
:102C4000880000BF40F22551024800F085F822B00C
:102C500010BD00000044004034000020330000207C
:102C600000100140CC0600204006002053454E4491
:102C7000204F4B004F4B000000B587B02748FFF7AF
:102C800010FA2748FFF70DFA01210820FFF734F961
:102C900001214804FFF740F9072205212148FEF7EA
:102CA000D3FA072206211F48FEF7CEFA02208DF83C
:102CB00004006020009069461A48FEF77DFA4FF440
:102CC000E13003900020ADF818000C20ADF816009C
:102CD0000020ADF81400ADF81200ADF8100003A903
:102CE000114800F0A3F801210F4800F044F8012238
:102CF00040F225510C4800F074F826208DF80800A9
:102D000001208DF80B0002208DF809008DF80A00D3
:102D100002A8FEF727FC07B000BD00004006002017
:102D2000CC060020000C02400044004070B505466F
:102D30000E4600240BE000BF06480088C0F3801058
:102D40000028F9D0295D034800F0DFF8641CB44284
:102D5000F1DB70BD0044004010B50022002340F6B6
:102D60006A14A14200D100BF0A1201249440A3B208
:102D7000DC43048010BD21B1828942F4005282817B
:102D800004E082894DF6FF731A408281704770B566
:102D90000246002400230025002040F66A16B142B6
:102DA00000D100BFC1F3421501F01F03012606FA4E
:102DB00003F3012D02D19689334006E0022D02D1A2
:102DC000168A334001E0968A33400C12012606FA37
:102DD00004F41688344013B10CB1012000E0002047
:102DE00070BDF0B50346002400260025002040F603
:102DF0006A17B94200D100BF1846C1F3421401F06E
:102E00001F06012707FA06F5012C01D10C3004E05A
:102E1000022C01D1103000E014301AB107682F43A2
:102E2000076002E00768AF430760F0BD2DE9FF4788
:102E300005460E460024A14600BFA046B08900B159
:102E400000BF2C8A24F44054F08804432C82AC89BF
:102E500041F20C608443B08831890843718908438A
:102E60000443AC81AC8A24F44074B0890443AC823E
:102E70006846FFF771F82048854202D01F48854216
:102E800002D1DDF80C9001E0DDF80890A88900F48B
:102E9000004040B109EBC90000EB0910316849005E
:102EA000B0FBF1F707E009EBC90000EB091031684E
:102EB0008900B0FBF1F76420B7FBF0F004012009B2
:102EC000642101FB1078A88900F4004040B1322051
:102ED00000EBC800B0FBF1F000F00700044308E08D
:102EE000322000EB08106421B0FBF1F000F00F007D
:102EF00004432C81BDE8FF8700100140001401400D
:102F000001468888C0F308007047C1F30802828038
:102F1000704700BFFEE710B5FFF75CF910BD70B554
:102F200004462046FDF7CEF9054629462046FFF720
:102F3000FDFE4FF4FA7000F00FF870BD10B5FFF70A
:102F40007BF900BF0520FFF71DF900F00100002804
:102F5000F8D1FFF777F910BD10B504460EE0601EFA
:102F600084B2084890F88800012804D1002005495F
:102F700081F8880010BD012000F0A6FC002CEEDCDA
:102F80000120F7E7CC06002010B504460EE0601ED5
:102F900084B2084890F88800022804D1002005492E
:102FA00081F8880010BD012000F08EFC002CEEDCC2
:102FB0000120F7E7CC06002010B5FFF73DF9062009
:102FC000FFF7E0F8FFF73EF910BD00000FB4054B26
:102FD00010B503A9044A029800F0EEF810BC5DF8A1
:102FE00014FB000015390008A40100200FB4084BA1
:102FF00010B504A902AA039800F0DEF8044602A95D
:10300000002000F05CFC204610BC5DF814FB0000C2
:10301000BF38000802E008C8121F08C1002AFAD110
:1030200070477047002001E001C1121F002AFBD148
:10303000704700002DE9FF5F82B00021DDE9043018
:10304000020DDDF840B0034318D044F61050A2F250
:10305000FF3242431514119801281FD0A5EB0B0035
:10306000401C5FEA000A4FF000064E4FDFF838912F
:10307000B046504615D5CAF1000413E0119801245A
:103080004AA3012801D16FEA0B010298119AC0E905
:103090000031C0E9024206B0BDE8F09FCBF100006C
:1030A000DFE704460021404A491842EB0450CDE9CD
:1030B000001012E0E00707D032463B464046494642
:1030C000FDF7BDF98046894632463B461046194613
:1030D000FDF7B5F906460F466410002CEAD1DDE98C
:1030E0000401DDE90023BAF1000F06DAFDF7A7F9C4
:1030F00042464B46FDF7A3F905E0FDF712FA4246BA
:103100004B46FDF70EFA04460E460022284BFDF70B
:1031100061FB03D84FF0FF30014607E00022254B4A
:1031200020463146FDF7E4F8FDF73CFB102409E0AA
:10313000002C0ADB0A220023FDF785FA039B3032BC
:103140001A55641E50EA0102F2D1641C039AC4F1BC
:1031500011031444119A012A03D0012208430DD10E
:103160000AE0084304D000204FF0110B119072E7E1
:10317000A3EB0B056D1E0DE05B4504DD4FF0000277
:1031800005F1010504E003DA4FF00002A5F10105A5
:10319000002AECD002981199C0E90231C0E900453B
:1031A00079E70000000014400000F03F300000000C
:1031B0000000F0430000E03F2DE9FF4F95B09A4634
:1031C000884606460025EEE1252877D100242746CB
:1031D000F94A0121039400E0044316F8013F203B23
:1031E00001FA03F01042F7D130782A2811D06FF09D
:1031F0002F033078A0F13002092A16D8039A44F040
:10320000020402EB820203EB42021044761C03909C
:10321000EFE758F8042B0392002A03DA504244F4F3
:103220000054039044F00204761C30782E2816D106
:1032300016F8010F44F004042A280DD06FF02F0275
:103240003078A0F13003092B09D807EB870302EB94
:103250004303C718761CF3E758F8047B761C3078D4
:103260006C280FD006DC4C2817D068280DD06A28AF
:1032700014D104E0742810D07A280FD10DE044F462
:1032800000140AE044F4801401E044F4401472781D
:10329000824202D104F58014761C761C30786628B0
:1032A0000BD013DC582877D009DC002875D04528CE
:1032B000F6D04628F4D047281AD193E118E06328C5
:1032C00035D0642879D0652812D18BE1702873D06D
:1032D00008DC6728F1D069286FD06E280DD06F28E0
:1032E00006D1ACE073282CD0752874D0782853D040
:1032F0005246179990476D1C54E1C4F302500228BE
:1033000009D003280DD0D8F8001004280DD00D6086
:1033100008F1040846E1D8F80010EA17C1E90052A4
:10332000F6E7D8F800100D80F2E70D70F0E718F816
:10333000041B8DF8001000208DF80100EB460120E1
:1033400003E058F804BB4FF0FF3061074FF0000175
:1033500002D40DE009F101018946B9420FDA814535
:10336000F8DB1BF809100029F4D108E009F101018C
:1033700089468142FADB1BF809100029F6D103982F
:103380005346A0EB090721463846179A00F080FA09
:10339000284400EB090507E044E008E10DE01BF8D4
:1033A000010B524617999047B9F10109F7D25346DC
:1033B00021463846179AF2E039E00A21C4F3025256
:1033C0004FF0000B0091022A06D058F8040BC117E9
:1033D000032A09D00AE023E008F1070020F00702E1
:1033E000F2E80201904605E000B2C117042A01D1BB
:1033F00040B2C117002906DA0A460021404261EBBB
:1034000002012D2202E0220504D52B228DF8042092
:10341000012203E0E20701D02022F7E7914657E0BE
:103420000A2100E010214FF0000B00910BE0102169
:103430004FF0000B44F004040827009103E008203B
:103440004FF0000B0090C4F30252022A05D058F846
:10345000040B0021032A08D008E008F1070020F03F
:103460000702F2E80201904603E080B2042A00D18C
:10347000C0B24FF0000922072AD53278702A07D04F
:10348000DDF800C08CF0100C5CEA0B0C05D00EE0EF
:1034900040228DF80420012208E050EA010306D002
:1034A00030238DF804308DF8052002229146009BD0
:1034B00083F0080353EA0B030AD150EA010201D159
:1034C000620705D530228DF804204FF001097F1ED8
:1034D0003278582A04D039A20C920CAA02920BE03E
:1034E0003BA2F9E75B46009AFDF7ADF80C9B9B5CAD
:1034F000029A521E0292137050EA0102F2D102980F
:1035000004A9081A00F1200B600702D524F48034C6
:1035100000E001275F4502DDA7EB0B0000E0002083
:1035200000EB0B01009003984944401A0390E0031C
:1035300006D453462146179A039800F0A9F905448A
:10354000002706E001A85246C05D179990476D1C00
:103550007F1C4F45F6DBE0030CD553462146179AF6
:10356000039800F095F9054404E03020524617997D
:1035700090476D1C0099481E00900029F5DC08E07A
:103580000298029952460078491C02911799904777
:103590006D1CBBF10001ABF1010BF1DC5BE100F054
:1035A00065F90544761C307800287FF40DAE19B01B
:1035B0002846BDE8F08F0000092801003031323381
:1035C000343536373839616263646566000000005F
:1035D0003031323334353637383941424344454649
:1035E00000000000600700D4062708F1070020F063
:1035F0000700F0E80223804603F0004C5FEA0C006D
:1036000001D097A009E0200501D596A005E0E007CC
:1036100001D095A001E0AFF24C001390307823F078
:10362000004365280CD006DC452809D046281DD06B
:1036300047287FD13BE0662818D067287AD136E04A
:103640000021112F01DB112000E0781CCDE90001E1
:1036500004A90CA8FFF7EEFCDDE90D010C9A4FF070
:10366000000B07F10109109200914EE04FF000406D
:103670000097CDE9011004A90CA8FFF7DBFCDDE9F8
:103680000D020C9B0F994FF0000B91461093009286
:1036900011B9791C00EB0109B7EB090003D4C0F1A3
:1036A000FF3B07F10109A9EB0700019042E0012F60
:1036B00000DA01270021112F01DD112000E038463A
:1036C000CDE9000104A90CA8FFF7B4FCDDE90D0168
:1036D0000C9A00914FF0000BB946109221070FD4BD
:1036E000009A4A4503DA914601E0A9F10109B9F1CE
:1036F000010F05DD109AA9F10101515C3029F4D0C8
:10370000B84202DA10F1040F03DA0121CDE9011009
:1037100010E0002803DC8344A9EB000102E0411C17
:10372000494500DD8946A0EB0B00401C01904FF09D
:1037300000400290200705D40198484502DB4FF075
:10374000FF30019000208DF84B0002980DF14B07DF
:10375000B0F1004F25D002200C902B200D90029844
:1037600000280CDA404202902D200D9007E00A213B
:103770000298FCF752FF3031029007F8011D0C99B6
:10378000481E0C900029F2DC02980028EFD1791E27
:103790000D980870307800F0200040F0450007F8E0
:1037A000020D11A8C01BC01D02901398007800B133
:1037B000012000EB0901019801EBE071029801443E
:1037C0000398401A401E0390E00306D45346214656
:1037D000179A039800F05CF805441398007818B124
:1037E0005246179990476D1CE00323D55346214656
:1037F000179A039800F04CF805441BE0BBF1000F4A
:1038000007DB0098584504DD1098179910F80B0055
:1038100001E0179930205246904701980BF1010BB7
:10382000401E05F10105019004D12E205246179942
:1038300090476D1CB9F10001A9F10109DEDC05E03A
:1038400017F8010B5246179990476D1C0299481EB4
:1038500002900029F4DC53462146179A03989EE60D
:103860002D0000002B000000200000002DE9F04199
:10387000044600251E461746880404D405E0394650
:103880002020B0476D1C641EF9D52846BDE8F081A4
:103890002DE9F041044600251E469046C80301D597
:1038A000302700E02027880404D505E0414638464B
:1038B000B0476D1C641EF9D52846BDE8F0810A6842
:1038C000531C0B601070704710B5044603E04FF4B2
:1038D0007A7000F005F8201EA4F10104F7D110BDA4
:1038E00010B501460A4B1A6850184FF6FE739842FD
:1038F00007D900BF064B1B684FF6FE74A342F9D3ED
:10390000001B00BF024B1B688342FBD310BD0000AD
:103910002414004000BF054A128802F04002002A29
:10392000F9D0C2B2014B9A807047000000100140EC
:103930007CB50E480578002413E0FDF759FE002001
:103940000B49CDE90010E0B2402380220021FEF7B0
:103950005EF9FDF771FF05480078854200D002E06E
:10396000641C802CE9DB00BF7CBD00003C00002013
:10397000997A000810B50020FDF792FF10BD0000F5
:1039800038B5FDF735FE31480078012831D130488F
:10399000007830B101280DD0022814D0032824D19A
:1039A0001CE02C48006808B9012000E000202949EB
:1039B00008601AE02848007808B9012000E00020DB
:1039C0002549087011E023480830006808B9012033
:1039D00000E000201F490831086006E006201F496A
:1039E000087000201A49087000BF00BF0020174966
:1039F00008700125002424E015480078A04213D166
:103A0000002513480078032807D020010830C1B2F0
:103A100008220C20FDF700FE06E02001C01DC1B207
:103A200008220C20FDF7F8FDE8B200900C4850F891
:103A300024202007010E10231E20FEF757F9012530
:103A4000641C042CD8DBFDF7F7FE38BDE90000202C
:103A5000E8000020A0024242110000203C000020AB
:103A6000EC000020F8B5FDF7C3FD3F4800780128C1
:103A700023D13E48007805281BD2DFE800F0030779
:103A80000B0F130000203A49087012E0012038495A
:103A900008700EE00220364908700AE0032034491D
:103AA000087006E007203349087000202F4908708D
:103AB00000BF00BF00202C49087001262B48047865
:103AC0004AE02A4A1178CA1701EB92729210A1EBD0
:103AD0008202E31704EB93739B10A4EB83039A42D7
:103AE00027D1002621490878C11700EB9171891070
:103AF000A0EB810103290ED02546E01704EB90705E
:103B00008010A4EB800000010830C1B208220C2014
:103B1000FDF782FD0DE02546E01704EB9070801064
:103B2000A4EB80000001C01DC1B208220C20FDF7EB
:103B300073FD052094FBF0F100FB11400E4951F894
:103B40002050F0B200902007010E10232A461E20BC
:103B5000FEF7CCF80126641C04480078001DA04242
:103B6000AFDCFDF769FEF8BD110100201001002057
:103B7000120000203C000020FC00002038B5FDF7BA
:103B800037FD2C480078012826D12B48007830B129
:103B900001280AD002280ED0032819D111E0FDF720
:103BA000E3F900202549087012E0FDF7E9F901204A
:103BB000224908700CE0FDF7E3F902201F49087064
:103BC00006E001201E49087000201B49087000BF54
:103BD00000BF0020174908700125002424E0164882
:103BE0000078A04213D1002513480078032807D09D
:103BF00020010830C1B208220C20FDF70DFD06E0BF
:103C00002001C01DC1B208220C20FDF705FDE8B25D
:103C100000900C4850F824202007010E10231E208D
:103C2000FDF788FF0125641C042CD8DBFDF704FE9A
:103C300038BD0000240100202501002026010020BD
:103C40003C000020140100207CB5FDF7D1FC4D485C
:103C5000007801283BD14C48007830B101280AD0C7
:103C600002280ED0032819D111E048480078801CA2
:103C70004649087012E046480078801C44490870A4
:103C80000CE044480078801C4249087006E001209E
:103C90004149087000203C49087000BF00BF3B4804
:103CA00000788DF804003A4800788DF8050039480E
:103CB00000788DF806000020FDF73EFA032201A9E6
:103CC0000020FEF7F3F800202E49087000BF012500
:103CD000002452E02C480078A04213D100252A4845
:103CE0000078032807D020010830C1B208220C2038
:103CF000FDF792FC06E02001C01DC1B208220C2095
:103D0000FDF78AFCE8B20090244850F824202007F0
:103D1000010E10231E20FDF70DFF24B1012C0FD042
:103D2000022C27D119E0E8B21021CDE900102007BC
:103D3000010E0223154802786020FDF722FF19E0EA
:103D4000E8B21021CDE900102007010E022310482F
:103D500002786020FDF715FF0CE0E8B21021CDE9F4
:103D600000102007010E02230A4802786020FDF7A8
:103D700008FF00BF00BF0125641C042CAADBFDF76F
:103D80005BFD7CBD390100203801002004000020CB
:103D900005000020060000203C0000202801002033
:103DA0001FB5FDF725FC00200190029003902648E6
:103DB000006808B9012000E000202349086023487A
:103DC000D0F8A00208B922A000E023A0024624A156
:103DD00001A8FFF70BF90120102301AA0021009090
:103DE0001E20FDF783FF1848001D006808B918A0C1
:103DF00000E019A002461DA101A8FFF7F7F8012075
:103E0000102301AA142100901E20FDF76FFF0E4819
:103E10000830006808B90EA000E00FA0024616A105
:103E200001A8FFF7E3F80120102301AA2821009040
:103E30001E20FDF75BFF082209211420FDF7ECFB93
:103E4000FDF7FAFC1FBD0000A00242420000424202
:103E50006F70656E00000000636C6F73650000009A
:103E60004C4544313A2025730D0A00004C4544323C
:103E70003A2025730D0A00004C4544333A2025733F
:103E80000D0A00007047704710B50120FDF708FDCE
:103E900010BD10B50220FDF703FD10BD10B50320C5
:103EA000FDF7FEFC10BD10B50420FDF7F9FC10BDB8
:103EB00010B50520FDF7F4FC10BD10B50620FDF788
:103EC000EFFC10BD10B50720FDF7EAFC10BD0000A7
:103ED0001FB5FDF78DFB01200C2337A214210090A4
:103EE0000020FDF727FE0020019002900390344847
:103EF00090ED041BB0EE410AF0EE610A53EC102B7A
:103F000030A101A8FFF772F801200C2301AA1421A7
:103F100000901920FDF7EAFE01200C232CA22A2193
:103F200000900020FDF706FE254890ED021BB0EE44
:103F3000410AF0EE610A53EC102B22A101A8FFF711
:103F400055F801200C2301AA2A2100901920FDF721
:103F5000CDFE01200C2320A2142100904620FDF765
:103F6000E9FD1F4802881FA101A8FFF73FF80120C3
:103F70000C2301AA142100906420FDF7B7FE012054
:103F80000C231AA22A2100904620FDF7D3FD1948E0
:103F900090ED000B53EC102B17A101A8FFF726F8AA
:103FA00001200C2301AA2A2100906420FDF79EFE27
:103FB000FDF742FC1FBD0000CEC2B6C800000000E5
:103FC000280600203A252E326C660D0A00000000FB
:103FD000CAAAB6C800000000B9E2D5D500000000AA
:103FE000200000203A25640D0A000000B5E7D1B991
:103FF00000000000280000203A252E316C660D0AD2
:10400000000000000EB54FF4A060FDF7E7FAFDF7E1
:1040100039FAFCF7F9FDFDF7C9F9FDF751F8FEF79C
:104020006DFDFEF749FAFDF7EFFE2248FCF7ACFD07
:10403000FCF72CFDFEF722FAFDF776FAFDF77CFB84
:10404000FEF769FFFDF794FEFDF7DEFEFCF738FE94
:10405000FEF712FE03220021012000F0C3FC1649E6
:1040600008600846006820B914A0FEF7AFFF00BF43
:10407000FEE7002002900322002102A8FDF7E0FFE6
:104080009DF80800144908709DF80900134908704C
:104090009DF80A00124908701248012100234A02C3
:1040A000CDE9001010A1124800F0F8FC00F00AFC65
:1040B00000200EBD00200140080000204661696C10
:1040C000656420746F206372656174652073656D2B
:1040D0006170686F72650A0004000020050000200E
:1040E000060000200000002073746172740000005C
:1040F000A92800082DE9F04105460E461C4807682E
:104100001C480068001D00F089FA50B91948006881
:1041100090F82C10012088401749096881431648FF
:104120000160681C38B936B112480168091D13488E
:1041300000F0B2FA1AE07C190E4800684460BC42F4
:1041400007D20C480168091D0D48006800F08AFA82
:104150000CE008480168091D0A48006800F082FA6E
:1041600009480068844201D207480460BDE8F08134
:10417000600100204C01002064010020280A00207A
:1041800054010020500100207C01002010B504469D
:1041900000F08EFA23480068401C2249086022483B
:1041A000006840B9204804600846006801280DD125
:1041B00000F028F90AE01D48006838B91A4800687C
:1041C000C06AE16A884201D817480460184800684C
:1041D000401C1749086094F82C10012088401549AC
:1041E0000968084313490860E16A01EB8101124A3A
:1041F00002EB8100211D00F04FFA00F06BFA0B4832
:10420000006868B108480068C06AE16A884207D25D
:104210004FF0805009490860BFF34F8FBFF36F8F95
:1042200010BD00005C0100204C010020680100204E
:1042300078010020640100205807002004ED00E010
:1042400070B523E000F072FB1348006808B9012044
:1042500000E00020054600F025FDBDB900F028FA79
:104260000D48C068C468201D00F0D8F90B480068EC
:10427000401E0A4908600A480068401E0849086054
:1042800000F028FA204600F00DF800BF044800684E
:104290000028D7D170BD0000140A00205C01002066
:1042A0005801002010B50446206B00F023FA204688
:1042B00000F020FA10BD000030B54FF4104317484D
:1042C00000F007042CB1C01D20F00700134C041BA4
:1042D0001B1B0246124C22600024114D6C60D0184A
:1042E000083820F007000F4C206000240D4D2D6889
:1042F0006C600C4D2D682C601146441A4C60094CC2
:1043000024680C60084D4C682C60084D4C682C608B
:104310004FF00044064D2C6030BD00003C0A0020E8
:1043200088010020900100209801002094010020C5
:104330009C01002000BFFFF783FF064800680128AA
:10434000F9D94FF0805004490860BFF34F8FBFF395
:104350006F8FF0E75807002004ED00E02DE9F041F1
:1043600006460D4617469846069C0DB9246000E0A7
:104370002760E66325640121204600F04FFBBDE87D
:10438000F0812DE9FF5F80460E469146DDE90E7A09
:10439000109CA9F10100216B01EB800B2BF0070BA6
:1043A000002507E0715D04F134004155705D00B9EE
:1043B00002E06D1C102DF5D300BF002143200155F4
:1043C000202F00D31F27E762201D00F048F904F1D9
:1043D000180000F044F92461C7F12000A061646274
:1043E0000020606484F8480041465846039A00F073
:1043F000FFF82060BAF1000F01D0CAF80040BDE814
:10440000FF9F000010B5002407E004EB84010F4A71
:1044100002EB810000F016F9641C202CF5D30C4847
:1044200000F010F90B4800F00DF90B4800F00AF904
:104430000A4800F007F90A4800F004F9044809495D
:10444000086004480849086010BD000058070020B3
:10445000D8090020EC090020000A0020140A0020DE
:10446000280A0020500100205401002010B5014608
:10447000164800E0006803688B42FBD3024643689D
:1044800013448B4204D143684C6823444360014683
:104490000A464B6813440468A34211D10C4C0368CC
:1044A0002468A34208D04B680468646823444B60C6
:1044B00003681B680B6005E0054B1B680B6001E09F
:1044C00003680B60884200D0016010BD88010020A5
:1044D000900100200A490968096809B9012100E032
:1044E000002121B14FF0FF31064A116006E0044976
:1044F0000968C968C868034A4168116070470000CC
:10450000500100207C01002000BFBF2080F31188F3
:10451000BFF34F8FBFF36F8F00BF00BFFEE70000F8
:104520002DE9F04105464FF0000800F0FFF92B4857
:10453000006808B9FFF7C0FE294800682840002835
:1045400047D145B1083505F0070020B105F0070057
:10455000C0F108000544002D3BD022480068854288
:1045600037D8214E3046046801E02646246860684A
:10457000A84202D220680028F7D118480068844277
:1045800027D0306800F10808206830606068401B60
:10459000102807D967196068401B78606560384645
:1045A000FFF764FF0F4960680968081A0D49086041
:1045B000084600680D490968884203D20948006826
:1045C0000A4908600649606809680843606000207D
:1045D000206000F067FB4046BDE8F08190010020BC
:1045E0009C010020940100208801002098010020F7
:1045F000001F4FF080730360001F21F00103036070
:10460000001F054B036014380260001F6FF00203A7
:1046100003602038704700000945000801460A6918
:10462000D1E901309860D1E90103586050688842AF
:1046300001D188685060002008611068401E106039
:104640001068704700F1080141604FF0FF31816050
:1046500000F10801C1600161002101607047002183
:104660000161704710B502460B685C1C0CB91069FB
:1046700007E002F1080000E04068446824689C42BA
:10468000FAD944684C604C68A160886041600A6156
:104690001468641C146010BD42684A6093688B60A3
:1046A000936859609160086103685B1C0360704700
:1046B00000BFBF2080F31188BFF34F8FBFF36F8F10
:1046C00000BF03480068401C0149086070470000B3
:1046D000A001002006480068401E05490860084601
:1046E000006820B9002080F3118800BF00BF704728
:1046F000A001002070B506463546D6B1083D2C46CF
:104700000C4960680968084098B1206888B909496F
:10471000606809688843606000F008F906496068CD
:1047200009680844044908602046FFF79FFE00F02E
:10473000B9FA70BD9C0100209401002003484FF09D
:10474000E021486107200861704700003F900200A7
:1047500070B50446002544B100F0E8F80021204679
:10476000FFF7C8FC00F09EFA05463DB94FF08050B7
:1047700003490860BFF34F8FBFF36F8F70BD000018
:1047800004ED00E02DE9F047044688464FF00009AB
:1047900000F0CCF816480668206800EB0805206891
:1047A000B04207D92068A8420BD9B54209D94FF0C9
:1047B000010906E02068A84201D8B54201D94FF0AE
:1047C00001092560B9F1000F03D0A81B0021FFF7F4
:1047D00091FC00F067FA07463FB94FF08050054959
:1047E0000860BFF34F8FBFF36F8FBDE8F087000005
:1047F0006001002004ED00E070B50546FFF758FFAA
:1048000015B92748006800E028460446201DFFF738
:1048100005FF78B9E06A00EB8000224951F82000DA
:1048200040B994F82C10012088401F490968814341
:104830001D480160A06A18B104F11800FFF7EEFEF0
:104840001A480068401C19490860154800688442ED
:1048500009D1211D1648FFF71FFF16480068401CAC
:104860001449086009E014480068401E12490860B5
:104870002046FFF717FDFFF72DFEFFF72BFF0F4830
:10488000006858B106480068844207D14FF0805054
:104890000B490860BFF34F8FBFF36F8F70BD0000EF
:1048A0004C010020580700206401002078010020FE
:1048B000140A0020580100205C010020680100203B
:1048C00004ED00E01CB5124800210B464FF4806255
:1048D000CDE900100FA1114800F0E0F80446012CCA
:1048E00014D100BFBF2080F31188BFF34F8FBFF3F7
:1048F0006F8F00BF4FF0FF30094908600120094960
:10490000086000200849086000F048F81CBD00005D
:104910008001002049444C45000000003543000858
:104920007C0100206801002060010020024800682E
:10493000401C01490860704784010020124800684B
:1049400018B10120114908601DE000200F490860DE
:104950000F480068B0FA80F0C0F11F0101EB81023E
:104960000C4B03EB820042685268426000F108027F
:104970004368934202D14268526842604268D268FA
:10498000054B1A6000BF70478401002070010020B1
:1049900064010020580700204C01002010B50E488B
:1049A000006840F47F000C4908600846006840F049
:1049B0007F400860FFF7C2FE002008490860FBF74F
:1049C0000FFC0748006840F0404005490860FBF7CD
:1049D000F7FB002010BD000020ED00E0A00100204A
:1049E00034EF00E02DE9F84307460D4690460DB937
:1049F000002601E007FB05F606F14800FFF790FDF1
:104A0000044644B104F1480943464A46294638461B
:104A10000094FFF7A3FC2046BDE8F88370B5054677
:104A20000E462C46FFF744FED4E90F12206801FB26
:104A3000020060600020A0632068A060E06B401E60
:104A4000226C216800FB0210E060FF2084F8440023
:104A500084F845009EB9206908B9012000E00020D3
:104A6000A8B904F1100000F0DDF880B14FF08050DB
:104A700009490860BFF34F8FBFF36F8F07E004F160
:104A80001000FFF7DFFD04F12400FFF7DBFDFFF767
:104A900021FE012070BD000004ED00E02DE9FF4F74
:104AA00085B0804689461746DDE912ABB800FFF7AE
:104AB00037FD064656B14C20FFF732FD04460CB1D7
:104AC000266304E03046FFF715FE00E000247CB1C9
:104AD0000020CDE900ABCDE902403A4649464046C8
:104AE000089BFFF74EFC2046FFF750FB012501E035
:104AF0004FF0FF35284609B0BDE8F08F014908683E
:104B000070470000600100202DE9F04100273A487D
:104B10000068002863D139480068451C37480560A3
:104B20008DB93748D0F800803648006834490860AD
:104B30003448C0F8008034480068401C324908609E
:104B4000FFF7C8FC00BF3148006885423BD300BF77
:104B50002B480068006808B9012000E0002020B15F
:104B60004FF0FF30294908602CE025480068C068F4
:104B7000C4686668B54202D22448066022E0201D5F
:104B8000FFF74CFDA06A18B104F11800FFF746FDCD
:104B900094F82C10012088401D49096808431C49DD
:104BA0000860E16A01EB81011A4A02EB8100211DD4
:104BB000FFF772FD1849E06A0968C96A8842C7D3DD
:104BC0000127C5E700BF14480068C06A00EB8000F9
:104BD000104951F82000012800D9012704E00F48AE
:104BE0000068401C0D4908600D48006800B10127AD
:104BF0003846BDE8F08100008401002060010020FB
:104C00005001002054010020740100207C0100208C
:104C100064010020580700204C0100206C01002096
:104C20007001002070B50646F068C46804F11800F1
:104C3000FFF7F4FC15480068A8B9201DFFF7EEFC4B
:104C400094F82C1001208840114909680843104944
:104C50000860E16A01EB81010E4A02EB8100211D2F
:104C6000FFF71AFD04E004F118010B48FFF714FDEB
:104C70000A49E06A0968C96A884204D90125012005
:104C80000749086000E00025284670BD8401002027
:104C90006401002058070020000A00204C01002079
:104CA0007001002070B500240026FFF701FD2E489A
:104CB0000068401E2C4908600846006800284FD153
:104CC0002A48006800284BD024E02948C068C468FE
:104CD00004F11800FFF7A2FC201DFFF79FFC94F8D9
:104CE0002C100120884023490968084321490860A5
:104CF000E16A01EB8101204A02EB8100211DFFF7EF
:104D0000CBFC1E49E06A0968C96A884202D30120C7
:104D10001B4908601648006808B9012000E000201F
:104D20000028D2D00CB1FFF7D5FB1648056865B155
:104D300000BFFFF7E9FE10B10120114908606D1EA8
:104D4000002DF6D100200F4908600D48006838B1E9
:104D5000012630070C490860BFF34F8FBFF36F8FF8
:104D6000FFF7B8FC304670BD840100205C010020D4
:104D7000000A002064010020580700204C01002098
:104D8000700100206C01002004ED00E00000000034
:104D900000000000002F00000000070007000014C2
:104DA0007F147F1400242A7F2A12006264081323D0
:104DB00000364955225000000503000000001C2267
:104DC0004100000041221C000014083E08140008A5
:104DD000083E0808000000A0600000080808080855
:104DE000000060600000002010080402003E5149ED
:104DF000453E0000427F400000426151494600218B
:104E000041454B31001814127F10002745454539A4
:104E1000003C4A49493000017109050300364949FF
:104E2000493600064949291E0000363600000000B8
:104E30005636000000081422410000141414141403
:104E400000004122140800020151090600324959AC
:104E5000513E007C1211127C007F49494936003EC8
:104E600041414122007F4141221C007F4949494183
:104E7000007F09090901003E4149497A007F08087D
:104E8000087F0000417F4100002040413F01007F3A
:104E900008142241007F40404040007F020C027F06
:104EA000007F0408107F003E4141413E007F090918
:104EB0000906003E4151215E007F0919294600463E
:104EC000494949310001017F0101003F4040403F15
:104ED000001F2040201F003F4038403F006314085F
:104EE000146300070870080700615149454300003A
:104EF0007F41410000552A552A55000041417F005D
:104F00000004020102040040404040400000010251
:104F10000400002054545478007F4844443800383A
:104F20004444442000384444487F003854545418C2
:104F300000087E0901020018A4A4A47C007F0804D4
:104F400004780000447D4000004080847D00007FA4
:104F5000102844000000417F4000007C04180478C1
:104F6000007C0804047800384444443800FC2424BD
:104F700024180018242418FC007C080404080048A5
:104F80005454542000043F444020003C4040207CC6
:104F9000001C2040201C003C4030403C00442810B5
:104FA0002844001CA0A0A07C004464544C44141469
:104FB00014141414000000000000000000000000A1
:104FC0000000FC000000000002000000000C020CC9
:104FD000020000000000000090D0BCD0BC90000394
:104FE000000300001824FE448C00030207020100A5
:104FF0001824D8B04C80000300010201C038E43806
:10500000E0000102020102020806000000000000A8
:1050100000000000000000F804020000000102048B
:10502000000204F800000004020100009060F86033
:1050300090000000010000002020FC202000000063
:105040000100000000000000000008060000000051
:1050500020202020200000000000000000000000B0
:1050600000000002000000000080601C0200040339
:1050700000000000F8040404F8000102020201002C
:105080000008FC0000000002030200001884442411
:10509000180003020202020008042424D8000102BE
:1050A0000202010040B088FC800000000003020002
:1050B0003C242424C400010202020100F824242C10
:1050C000C0000102020201000C04E41C0400000004
:1050D00003000000D8242424D800010202020100A9
:1050E00038444444F80000030202010000001000AC
:1050F000000000000200000000002000000000008E
:105100000600000000205088040200000000010298
:105110009090909090000000000000000002048831
:1051200050200002010000001804C42418000000F0
:1051300002000000F804E494F800010202020200F8
:1051400000E09CF0800002030000030204FC242421
:10515000D800020302020100F80404040C0001025A
:105160000202010004FC0404F80002030202010030
:1051700004FC24740C0002030202030004FC2474E7
:105180000C00020302000000F0080444CC400001BF
:105190000202010004FC2020FC04020300000302C0
:1051A0000404FC040400020203020200000404FCE4
:1051B000040406040403000004FC24D00C040203CD
:1051C0000200030204FC04000000020302020203C6
:1051D000FC3CC03CFC0003000300030004FC30C4A2
:1051E000FC04020302000300F8040404F8000102B6
:1051F0000202010004FC2424180002030200000043
:10520000F8848404F80001020207050004FC246409
:105210009800020302000302182424448C000302B5
:10522000020201000C04FC040C0000020302000056
:1052300004FC0000FC04000102020100047C80E088
:105240001C040000030000001CE03CE01C00000304
:1052500000030000049C609C0400020300030200A1
:10526000041CE01C04000002030200000C84641C07
:1052700004000203020203000000FE02020000001C
:1052800007040400000E30C000000000000102000E
:10529000000202FE000000040407000000040204F3
:1052A00000000000000000000000000000000808EE
:1052B00008080808000002000000000000000000CC
:1052C0000040A0A0C00000010202030204FC202054
:1052D000C00000030202010000C0202060000001A5
:1052E0000202020000C02024FC00000102020302AE
:1052F00000C0A0A0C0000001020202000020F824AB
:1053000024040002030202000040A0A06020000765
:105310000A0A0A0404FC2020C0000203020003025F
:105320000020E4000000000203020000000020E46E
:10533000000008080807000004FC80E020200203A9
:10534000020003020404FC00000002020302020047
:10535000E020E020C00003000300030020E0202044
:10536000C00002030200030200C02020C0000001B0
:105370000202010020E02020C000080F0A02010004
:1053800000C02020E0000001020A0F0820E04020B9
:1053900020000203020000000060A0A02000000224
:1053A000020203000020F8200000000001020200B9
:1053B00020E00020E00000010202030220E0208043
:1053C00060200000030100006080E08060000003B6
:1053D0000003000020608060200002030003020040
:1053E00020E0208060200808070100000020A06065
:1053F0002000000203020200000020DE0200000084
:1054000000070400000000FF00000000000F000083
:105410000002DE2000000004070000000201020478
:105420000402000000000000000000000000000076
:105430000000000000000000000000F80000000074
:10544000000000333000000000100C06100C0600B5
:10545000000000000000000040C07840C07840001C
:10546000043F04043F040400007088FC083000007E
:10547000001820FF211E0000F008F000E0180000D6
:1054800000211C031E211E0000F00888700000008F
:105490001E2123241927211010160E0000000000E1
:1054A0000000000000000000000000E018040200FE
:1054B000000000071820400000020418E00000006F
:1054C0000040201807000000404080F0804040006D
:1054D0000202010F01020200000000F000000000C3
:1054E0000101011F01010100000000000000000097
:1054F00080B070000000000000000000000000000C
:105500000001010101010101000000000000000094
:10551000003030000000000000000000806018042F
:10552000006018060100000000E010080810E0000C
:10553000000F102020100F00001010F800000000D5
:105540000020203F2020000000700808088870001C
:10555000003028242221300000300888884830009C
:105560000018202020110E000000C02010F80000BC
:1055700000070424243F240000F808888808080055
:105580000019212020110E0000E01088881800006A
:10559000000F112020110E0000380808C83808003C
:1055A0000000003F000000000070880808887000BC
:1055B000001C222121221C0000E010080810E0003D
:1055C0000000312222110F00000000C0C0000000C6
:1055D00000000030300000000000008000000000EB
:1055E00000008060000000000000804020100800E3
:1055F00000010204081020004040404040404000AC
:105600000404040404040400000810204080000086
:105610000020100804020100007048080808F0008B
:105620000000003036010000C030C828E810E0005B
:105630000718272423140B000000C038E0000000E6
:10564000203C23020227382008F888888870000050
:10565000203F202020110E00C03008080808380024
:10566000071820202010080008F808080810E0009B
:10567000203F202020100F0008F88888E80810003C
:10568000203F20202320180008F88888E808100010
:10569000203F200003000000C03008080838000048
:1056A00007182020221E020008F808000008F80849
:1056B000203F210101213F20000808F808080000D0
:1056C0000020203F2020000000000808F808080003
:1056D000C08080807F00000008F888C0281808007B
:1056E000203F20012638200008F8080000000000B4
:1056F000203F20202020300008F8F800F8F80800AB
:10570000203F003F003F200008F830C00008F808A4
:10571000203F200007183F00E01008080810E000B4
:105720000F10202020100F0008F808080808F000CB
:10573000203F210101010000E01008080810E000EE
:105740000F18242438504F0008F888888888700083
:10575000203F2000030C3020007088080808380023
:105760000038202121221C00180808F80808180019
:105770000000203F2000000008F808000008F8089A
:10578000001F202020201F000878880000C838084B
:10579000000007380E010000F80800F80008F800C3
:1057A000033C0700073C030008186880806818085D
:1057B00020302C03032C30200838C800C8380800DB
:1057C0000000203F2000000010080808C83808002A
:1057D0002038262120201800000000FE02020200CE
:1057E0000000007F40404000000C30C0000000007E
:1057F000000000010638C00000020202FE000000A6
:10580000004040407F00000000000402020204004B
:105810000000000000000000000000000000000088
:105820008080808080808080000202040000000070
:105830000000000000000000000080808080000068
:105840000019242222223F2008F800808000000056
:10585000003F112020110E00000000808080000019
:10586000000E112020201100000000808088F80028
:10587000000E112020103F2000008080808000005A
:10588000001F222222221300008080F088888818BE
:105890000020203F202000000000808080808000C9
:1058A000006B94949493600008F80080808000005E
:1058B000203F210000203F20008098980000000039
:1058C0000020203F20200000000000809898000069
:1058D00000C08080807F000008F800008080800089
:1058E000203F24022D302000000808F800000000AE
:1058F0000020203F20200000808080808080800069
:10590000203F20003F20003F8080008080800000FA
:10591000203F210000203F20000080808080000088
:10592000001F202020201F008080008080000000B9
:1059300080FFA12020110E000000008080808000E8
:10594000000E112020A0FF808080800080808000D9
:1059500020203F2120000100000080808080800006
:105960000033242424241900008080E0808000007B
:105970000000001F202000008080000000808000C8
:10598000001F202020103F20808080000080808029
:1059900000010E30080601008080008000808080B9
:1059A0000F300C030C300F000080800080808000DE
:1059B0000020312E0E312000808080000080808009
:1059C00080818E70180601000080808080808000B9
:1059D0000021302C2221300000000000807C0202D7
:1059E00000000000003F404000000000FF000000F9
:1059F00000000000FF0000000002027C80000000A8
:105A00000040403F000000000006010102020404C3
:105A10000000000000000000000000000000000086
:105A20000000000000000000000000000000000076
:105A30000000000000000000000000000000000066
:105A400000F0F0F0000000000000000000017F0105
:105A50000000000000000000001C1C1C00000000F2
:105A600000008060301C8C60301C0C0000000000C6
:105A70000000000000000000000000000000000026
:105A800000000000000000E00000000000E0000056
:105A90000086E69F86868686E69F860000011F01B7
:105AA000010101011F010100000080C06020F820F9
:105AB000E0C00000000003070C18FF70E181000047
:105AC0000000070F10107F100F070000806020609B
:105AD00080000000E02000000F3020309F70DC3795
